:100000000C942A040C9447040C9447040C94332950
:100010000C9431330C9447040C9447040C9447041B
:100020000C9447040C9447040C9447040C94C51B8F
:100030000C9447040C9447040C9447040C94470414
:100040000C94BF140C9447040C9424130C94DF12EA
:100050000C9447040C9447040C9447040C944704F4
:100060000C9447040C944704051F051F051F101F1F
:10007000191F221F2B1F421F591F701F7C1F881F13
:10008000941FA91FB21FBB1FC41FCD1FD91FE21F82
:10009000EB1FFD1F1120232035204B2061207320F2
:1000A0007C2085208E209920084AD73B3BCE016ECC
:1000B00084BCBFFDC12F3D6C74319ABD56833DDABF
:1000C0003D00C77F11BED9E4BB4C3E916BAAAABECE
:1000D000000000803F05A84CCDB2D44EB93836A9F7
:1000E000020C50B9918688083CA6AAAA2ABE000034
:1000F00000803F3E0D0A002C0057506F733A002CD1
:10010000002C4D506F733A003C436865636B003CB4
:10011000416C61726D003C486F6D65003C486F6CCE
:1001200064003C52756E003C5175657565003C4934
:10013000646C65005D0D0A005B302E39642E323030
:100140003134303232383A000D0A003D00244E007E
:100150005D0D0A00204600205400204D3800204D3F
:100160003900204D3500204D3400204D3300204D06
:100170003200204D3100204D30002047393400201E
:1001800047393300204739310020473930002047B4
:1001900032310020473230002047313900204731CA
:1001A000380020473137002047005B473830005B7C
:1001B0004733005B4732005B4731005B4730005DEF
:1001C0000D0A002C005B4739323A005D0D0A002C05
:1001D0000033303A0032383A0035393A0035383A8F
:1001E0000035373A0035363A0035353A0035343A7D
:1001F000005B47005D0D0A002C005B50726F62656A
:100200003A002028686F6D696E672070756C6C2DE0
:100210006F66662C206D6D290D0A002028686F6DB1
:10022000696E67206465626F756E63652C206D73FF
:100230006563290D0A2433313D002028686F6D69FC
:100240006E67207365656B2C206D6D2F6D696E294F
:100250000D0A2433303D002028686F6D696E6720D9
:10026000666565642C206D6D2F6D696E290D0A24FD
:1002700032393D00290D0A2432383D002028686FAC
:100280006D696E672064697220696E76657274208C
:100290006D61736B3A002028686F6D696E6720632B
:1002A00079636C652C20626F6F6C290D0A243237DC
:1002B0003D00202868617264206C696D6974732C3C
:1002C00020626F6F6C290D0A2432363D002028739E
:1002D0006F6674206C696D6974732C20626F6F6C2B
:1002E000290D0A2432353D002028696E7665727426
:1002F000206C696D69742070696E732C20626F6F59
:100300006C290D0A2432343D002028696E7665720E
:1003100074207374657020656E61626C652C206258
:100320006F6F6C290D0A2432333D002028617574EB
:100330006F2073746172742C20626F6F6C290D0AC8
:100340002432323D0020287265706F727420696E0D
:10035000636865732C20626F6F6C290D0A2432313B
:100360003D0020286E2D646563696D616C732C20DF
:10037000696E74290D0A2432303D002028617263B1
:1003800020746F6C6572616E63652C206D6D290D34
:100390000A2431393D0020286A756E6374696F6ED6
:1003A00020646576696174696F6E2C206D6D290D0E
:1003B0000A2431383D002028737465702069646C0C
:1003C000652064656C61792C206D736563290D0A65
:1003D0002431373D00290D0A2431363D00202864A0
:1003E000697220706F727420696E76657274206D08
:1003F00061736B3A00290D0A2431353D00202873C2
:1004000074657020706F727420696E7665727420E6
:100410006D61736B3A00202864656661756C7420A9
:10042000666565642C206D6D2F6D696E290D0A243B
:1004300031343D002028737465702070756C7365CD
:100440002C2075736563290D0A2431333D00202863
:100450007A206D61782074726176656C2C206D6DE8
:10046000290D0A2431323D00202879206D61782041
:1004700074726176656C2C206D6D290D0A24313102
:100480003D00202878206D61782074726176656C5B
:100490002C206D6D290D0A2431303D0020287A2052
:1004A000616363656C2C206D6D2F7365635E32290B
:1004B0000D0A24393D0020287920616363656C2C86
:1004C000206D6D2F7365635E32290D0A24383D005F
:1004D00020287820616363656C2C206D6D2F736517
:1004E000635E32290D0A24373D0020287A206D6191
:1004F0007820726174652C206D6D2F6D696E290DE9
:100500000A24363D00202879206D617820726174BC
:10051000652C206D6D2F6D696E290D0A24353D0007
:10052000202878206D617820726174652C206D6DB3
:100530002F6D696E290D0A24343D0020287A2C2065
:10054000737465702F6D6D290D0A24333D002028CA
:10055000792C20737465702F6D6D290D0A24323D3E
:10056000002028782C20737465702F6D6D290D0A7A
:1005700024313D0024303D0024242028766965770D
:10058000204772626C2073657474696E6773290DFD
:100590000A24232028766965772023207061726100
:1005A0006D6574657273290D0A2447202876696584
:1005B0007720706172736572207374617465290DA0
:1005C0000A244E20287669657720737461727475E9
:1005D0007020626C6F636B73290D0A24783D76611D
:1005E0006C7565202873617665204772626C207394
:1005F000657474696E67290D0A244E783D6C696EC6
:10060000652028736176652073746172747570203B
:10061000626C6F636B290D0A24432028636865634D
:100620006B2067636F6465206D6F6465290D0A2414
:100630005820286B696C6C20616C61726D206C6F46
:10064000636B290D0A2448202872756E20686F6D2F
:10065000696E67206379636C65290D0A7E202863C3
:1006600079636C65207374617274290D0A212028E6
:100670006665656420686F6C64290D0A3F202863F5
:10068000757272656E7420737461747573290D0AC6
:100690006374726C2D7820287265736574204772BC
:1006A000626C290D0A000D0A4772626C20302E39E7
:1006B00064205B27242720666F722068656C705D5C
:1006C0000D0A005D0D0A0044697361626C65640087
:1006D000456E61626C65640043617574696F6E3A62
:1006E00020556E6C6F636B656400272448277C2758
:1006F00024582720746F20756E6C6F636B005265F1
:1007000073657420746F20636F6E74696E75650015
:100710005B000D0A0050726F6265206661696C00B3
:1007200041626F727420647572696E6720637963C9
:100730006C6500486172642F736F6674206C696D1C
:10074000697400414C41524D3A20000D0A004C6939
:100750006E65206F766572666C6F7700486F6D69A5
:100760006E67206E6F7420656E61626C6564004117
:100770006C61726D206C6F636B004E6F74206964E6
:100780006C6500454550524F4D207265616420668E
:1007900061696C2E205573696E67206465666175AA
:1007A0006C74730056616C7565203C203320757342
:1007B00065630056616C7565203C20302E30005317
:1007C000657474696E672064697361626C65640046
:1007D000496E76616C69642073746174656D656ED1
:1007E00074004D6F64616C2067726F75702076695C
:1007F0006F6C6174696F6E00496E76616C6964201C
:1008000072616469757300556E737570706F727480
:1008100065642073746174656D656E7400457870ED
:10082000656374656420636F6D6D616E64206C65D3
:100830007474657200426164206E756D6265722029
:10084000666F726D6174006572726F723A20006F2C
:100850006B0D0A0011241FBECFEFD8E0DEBFCDBF65
:1008600011E0A0E0B1E0E8E9F3E702C005900D92E5
:10087000A030B107D9F716E0A0E0B1E001C01D92A9
:10088000A339B107E1F70E9449040C94CA390C94CA
:1008900000001F930E94AC120E94B9210E94D5143F
:1008A0000E9420338EE1EBE1F5E0DF011D928A9595
:1008B000E9F781E080931B0578948091830684FF9B
:1008C00003C081E080931C0511E00E941F130E9469
:1008D00058120E9486120E949C120E94B4280E9404
:1008E000E12C0E94CF270E94A31B0E946C220E9431
:1008F000460910921B0510921D058091830681FF09
:1009000003C010932B0502C010922B050E941F14E8
:10091000DCCF80911D0584FD14C080911D05806190
:1009200080931D050E948A120E949F1280911C05CF
:10093000847339F080911D05806280931D050E94AB
:10094000771B089584E080931C050E94D82881E0DD
:100950000E94642982E00E9464290E948013809191
:100960001B05882341F40E94460910921C050E9431
:10097000771B0E94B4280895EF92FF920F931F9364
:10098000CF93DF937B018C0120E030E040EA51E41B
:100990000E94A0380E94A8360E943F36EB010E94B8
:1009A0000814C801B70120E030E04AE754E40E948F
:1009B000A0387B018C0182E390E0C89FB001C99F01
:1009C000700DD89F700D112480E090E00E946B366E
:1009D0009B01AC01C801B7010E94F1340E94A83606
:1009E0000E943F36DC01CB010E949B2800E911E008
:1009F0000EC00E94801380911B05882351F484EF60
:100A000091E0F8013197F1F70197D9F721972097F5
:100A100081F7DF91CF911F910F91FF90EF90089593
:100A2000DF92EF92FF920F931F93CF93DF93EC012E
:100A30007A018B01D22E8091830685FF03C0CE01FF
:100A40000E94E32880911C058230D1F00E9480131F
:100A500080911B058823A1F40E946222882319F04B
:100A60000E947613F3CFCE01B801A7012D2D0E946D
:100A7000E72380911C05882319F488E080931C05E6
:100A8000DF91CF911F910F91FF90EF90DF9008952C
:100A90007F928F929F92AF92BF92CF92DF92EF920E
:100AA000FF920F931F93CF93DF936C014A015B0179
:100AB000722E80911C05803111F00E9476130E94E5
:100AC000081480911B05882309F06BC0C601B5018D
:100AD000A401272D0E94100581E080932C058091B0
:100AE0001D05826080931D050E94801380911B0567
:100AF000882309F056C080911C05882311F08830A6
:100B000099F780912C05813029F480911D0580642E
:100B100080931D050E94801380911B05882309F096
:100B200040C08DE2E82E85E0F82EC0E0D0E08601DE
:100B30000C0F1D1FF70161917191819191917F01BE
:100B40000E946D36FE01EE5BF94F208131814281BA
:100B500053810E94D235F80160837183828393832D
:100B60002496CC30D10519F70E9480130E94A31B54
:100B70000E94CF270E946C22C601B501A401272D37
:100B80000E94100580911D05826080931D050E94C2
:100B9000081480911B05882321F40E9446090E94B5
:100BA000CD2EDF91CF911F910F91FF90EF90DF90AD
:100BB000CF90BF90AF909F908F907F9008952F928D
:100BC0003F924F925F926F927F928F929F92AF92DD
:100BD000BF92CF92DF92EF92FF920F931F93DF931A
:100BE000CF93CDB7DEB7C255D0400FB6F894DEBF75
:100BF0000FBECDBF3C0123967FAF6EAF23972596E6
:100C00005FAF4EAF259726962FAF269727960FAF4B
:100C100027972896EFAE28972C96ACAEBDAECEAEF9
:100C2000DFAE2C972D968FAE2D97E22EFF24EE0C83
:100C3000FF1CEE0CFF1C4E0D5F1D21965FAF4EAFEB
:100C40002197DA012D903D904D905C90FC01EE0DC6
:100C5000FF1DC201B10120813181428153810E9477
:100C6000F2346DAB7EAB8FAB98AF10E0000F111F6D
:100C7000000F111F2596EEADFFAD2597E00FF11F78
:100C8000FEAFEDAFA080B180C280D380F301E00F52
:100C9000F11FC601B50120813181428153810E943B
:100CA000F23469AB7AAB8BAB9CAB28962FAD28970F
:100CB000E22FF0E0EE0FFF1FEE0FFF1F6E0E7F1E04
:100CC000D3018D919D910D90BC91A02D89AF9AAFCC
:100CD000ABAFBCAF23962EAD3FAD2397E20FF31F12
:100CE000608171818281938129AD3AAD4BAD5CAD5C
:100CF0000E94F1346DA77EA78FA798ABD201C101E6
:100D0000B05889A79AA7ABA7BCA7A60195015058D0
:100D10002DA33EA34FA358A723964EAD5FAD2397B7
:100D2000E40EF51ED7016D917D918D919C912DA9B9
:100D30003EA94FA958AD0E94F1343B014C012396C6
:100D4000EEADFFAD23970E0F1F1FD8016D917D9162
:100D50008D919C9129A93AA94BA95CA90E94F134D3
:100D60005B016C0169A57AA58BA59CA5A6019501DF
:100D70000E94A0387B018C016DA17EA18FA198A556
:100D8000A40193010E94A0389B01AC01C801B701E6
:100D90000E94F1341B012C0169A57AA58BA59CA5A5
:100DA000A40193010E94A0387B018C016DA17EA15A
:100DB0008FA198A5A60195010E94A0389B01AC01C6
:100DC000C801B7010E94F2349B01AC01C201B1011C
:100DD0000E9465353B014C01AC968FADAC978823E2
:100DE00099F0C401B30120E030E040E050E00E94FF
:100DF000CE378823ECF0C401B3012BED3FE049EC82
:100E000050E40E94F13412C0C401B30120E030E08C
:100E100040E050E00E94CB35181654F0C401B301F5
:100E20002BED3FE049EC50E40E94F2343B014C01D1
:100E3000C401B301AB962CAD3DAD4EAD5FADAB97EC
:100E40000E94A0382DA53EA54FA558A90E94DB37CA
:100E50005B016C01E0907E06F0907F0600918006B9
:100E600010918106AB966CAD7DAD8EAD9FADAB970D
:100E70009B01AC010E94F234A80197010E94F13459
:100E80009B01AC01C801B7010E94A0380E942D3916
:100E90007B018C01C601B50120E030E040E05FE35A
:100EA0000E94A038A80197010E94D2350E94A8365E
:100EB0000E943F367CA36BA36115710509F4BDC187
:100EC0002D96BFAD2D97BB23A1F080E090E00E944E
:100ED0006B369B01AC012C966CAD7DAD8EAD9FAD9C
:100EE0002C970E94A0382C966CAF7DAF8EAF9FAF31
:100EF0002C972BA13CA1B90180E090E00E946B36B9
:100F00007B018C01C401B301A80197010E94D23575
:100F10006F8F78A389A39AA36DA57EA58FA598A9A5
:100F2000A80197010E94D2356B8F7C8F8D8F9E8F89
:100F30006F8D78A189A19AA19B01AC010E94A03874
:100F40009B01AC0160E070E080E090E40E94F1342D
:100F50005B016C016F8D78A189A19AA12BEA3AEA15
:100F60004AE25EE30E94A0387B018C01C601B50114
:100F700020E030E040E850E40E94F2349B01AC01F4
:100F8000C801B7010E94A0386F8B788F898F9A8F24
:100F9000C601B50120E030E040E05FE30E94A038E8
:100FA0006D877E878F87988B28963FAD2897E32F94
:100FB000F0E0EE0FFF1FEE0FFF1FCE010196E80FCE
:100FC000F91F29AD3AAD4BAD5CAD2083318342832F
:100FD000538341E050E05A8B498B99242696BFAD4C
:100FE0002697AB2FB0E0AA0FBB1FAA0FBB1F9C0117
:100FF0002A0F3B1F2F963FAF2EAF2F9727965FAD3F
:101000002797452F50E0440F551F440F551F81E08F
:1010100090E08C0F9D1F840F951F61969FAF8EAF40
:1010200061976396FFAFEEAF6397FFC093E19915A9
:1010300008F446C069A57AA58BA59CA52F89388D93
:10104000498D5A8D0E94A0387B018C016DA17EA133
:101050008FA198A52D853E854F8558890E94A0387F
:101060009B01AC01C801B7010E94F2347B018C01E5
:1010700069A57AA58BA59CA52D853E854F855889A8
:101080000E94A0385B016C016DA17EA18FA198A583
:101090002F89388D498D5A8D0E94A0389B01AC0153
:1010A000C601B5010E94F13469A77AA78BA79CA756
:1010B0009394C701D8018DA39EA3AFA3B8A763C023
:1010C000A989BA89BD0180E090E00E946B362F8D1E
:1010D00038A149A15AA10E94A0387B018C01C80106
:1010E0000E94CF356B8B7C8B8D8B9E8BB701C8019B
:1010F0000E9423393B014C012196EEADFFAD2197B3
:10110000E080F1800281138117FB109517F910958B
:10111000ADADBEAD2D903D904D905C90C801B70136
:101120002B893C894D895E890E94A0385B016C0146
:10113000C201B101A40193010E94A0389B01AC013E
:10114000C601B5010E94F23469A77AA78BA79CA7B4
:10115000C801B701A40193010E94A0387B018C0152
:10116000C201B1012B893C894D895E890E94A0385A
:101170009B01AC01C801B7010E94F1346DA37EA3AD
:101180008FA398A799246DA97EA98FA998AD29A5A9
:101190003AA54BA55CA50E94F2342F96EEADFFADAB
:1011A0002F97608371838283938369A97AA98BA91E
:1011B0009CA92DA13EA14FA158A50E94F234619691
:1011C000AEADBFAD61976D937D938D939C93139757
:1011D0006396EEADFFAD63976081718182819381EB
:1011E0002B8D3C8D4D8D5E8D0E94F2346396AEAD9D
:1011F000BFAD63976D937D938D939C931397CE01B1
:1012000001962C964CAD5DAD6EAD7FAD2C972D96B5
:101210002FAD2D970E94100580911B058823E1F4C6
:10122000E989FA893196FA8BE98B29893A894BA1A8
:101230005CA12417350708F4F9CE23968EAD9FAD37
:1012400023972C964CAD5DAD6EAD7FAD2C972D9652
:101250002FAD2D970E941005CE5ADF4F0FB6F89490
:10126000DEBF0FBECDBFCF91DF911F910F91FF90D9
:10127000EF90DF90CF90BF90AF909F908F907F9036
:101280006F905F904F903F902F90089560911F0551
:101290007091200580912105909122050E946D3664
:1012A00020914206309143064091440650914506F4
:1012B0000E94D2356093490570934A0580934B058F
:1012C00090934C056091230570912405809125052C
:1012D000909126050E946D36209146063091470672
:1012E00040914806509149060E94D23560934D05C1
:1012F00070934E0580934F0590935005609127059C
:10130000709128058091290590912A050E946D36DB
:1013100020914A0630914B0640914C0650914D0663
:101320000E94D23560935105709352058093530506
:101330009093540508950F931F93CF93DF93EC017F
:101340008B01D9018C91FA01E80FF11DE081EE23A8
:10135000A9F0E883E154EA3110F082E00DC08C91ED
:101360008F5F8C93CA01B901A8010E94E027892BE5
:1013700011F081E004C081E08093390580E0DF91C5
:10138000CF911F910F9108952F923F924F925F92AC
:101390006F927F928F929F92AF92BF92CF92DF9285
:1013A000EF92FF920F931F93CF93DF938C01E09105
:1013B0005605F0E0EE0FFF1FEE0FFF1FDC01AE0F32
:1013C000BF1FE75BFA4F6D917D918D919C912081BC
:1013D0003181428153810E94F1341B012C01E09143
:1013E0005705F0E0EE0FFF1FEE0FFF1F0E0F1F1F40
:1013F000E75BFA4FD8016D917D918D919C91208191
:101400003181428153810E94F1343B014C018CE0D7
:10141000E6E7F5E0DF011D928A95E9F7A0907205F5
:10142000B0907305C0907405D0907505C601B501E4
:1014300020E030E040E850E40E94A038A601950189
:101440000E94A0387B018C01C201B101A20191016F
:101450000E94A0389B01AC01C801B7010E94F13481
:101460007B018C01C401B301A40193010E94A03847
:101470009B01AC01C801B7010E94F1347B018C01D2
:1014800020E030E040E050E00E94CB35882324F497
:1014900084E08093390579C0C801B7010E942D39D5
:1014A0007B018C01C201B101A40193010E94DB37D1
:1014B0009B01AC0117FB109517F91095C801B701F6
:1014C0000E94D2357B018C0180913A05833021F452
:1014D00017FB109517F91095C601B50120E030E013
:1014E00040E050E00E94CB3588237CF417FB109538
:1014F00017F91095D601C501B058809372059093E5
:101500007305A0937405B093750580915605C82F97
:10151000D0E0CC0FDD1FCC0FDD1FCA58DA4FC4015D
:10152000B301A80197010E94A0389B01AC01C20140
:10153000B1010E94F13420E030E040E05FE30E941E
:10154000A038688379838A839B8380915705C82F4D
:10155000D0E0CC0FDD1FCC0FDD1FCA58DA4FC2011F
:10156000B101A80197010E94A0389B01AC01C40100
:10157000B3010E94F23420E030E040E05FE30E94DB
:10158000A038688379838A839B83DF91CF911F91F1
:101590000F91FF90EF90DF90CF90BF90AF909F9012
:1015A0008F907F906F905F904F903F902F90089515
:1015B0002F923F924F925F926F927F928F929F9263
:1015C000AF92BF92CF92DF92EF92FF920F931F9351
:1015D000DF93CF93CDB7DEB7E8970FB6F894DEBFB1
:1015E0000FBECDBF4C0119822CE0FE013796DF0102
:1015F000822F1D928A95E9F780E090E0A0E0B0E0AC
:101600008093720590937305A0937405B09375054C
:10161000E6E7F5E0DF011D922A95E9F7109239051A
:1016200018AE1FAA1EAA1DAAB3E06B2E712C6C0E59
:101630007D1E2E010894411C511CA1E02A2E312C44
:10164000F3E0AF2ECC24C394E2E0BE2EF0C1EB80D9
:10165000FC800D811E81C801B7010E946E390E9475
:101660003A369B014A81473421F04D3409F0DFC1FD
:101670006CC16E31710509F440C06F317105D4F44D
:101680006431710584F461317105ECF564307105E4
:10169000A1F1653071051CF4772394F52CC06A30F4
:1016A000710549F52AC066317105B4F16C317105D7
:1016B00011F523C06035710519F16135710574F4B8
:1016C00065337105D1F06633710524F46632710516
:1016D00091F416C06C33710574F421C06C3571053A
:1016E00061F06D35710524F46A35710524F00EC082
:1016F0006F35710574F0DD2414C0DD24D39411C05E
:1017000072E0D72E0EC063E0D62E0BC054E0D52E6B
:1017100008C046E0D42E05C097E0D92E02C08AE06A
:10172000D82E2C31310509F49CC02D313105CCF572
:101730002A30310509F46AC02B303105CCF422304F
:10174000310509F46DC0233031054CF42115310504
:1017500009F460C02130310509F04FC15EC023306B
:10176000310509F460C02430310509F046C150C08C
:101770002331310509F468C0243131054CF421319D
:10178000310509F453C02231310509F036C155C085
:101790002431310509F45FC02531310509F02DC12F
:1017A0005DC02035310509F4A6C021353105ACF402
:1017B0002533310509F497C0263331054CF42E3119
:1017C000310509F44EC02632310509F016C177C043
:1017D0002C3331050CF011C189C02C35310509F4C9
:1017E00094C02D3531054CF42A35310509F487C0F4
:1017F0002B35310509F001C185C02D35310509F4BE
:101800009EC02E35310509F0F8C09CC0B2E04CC036
:10181000E1E04DC010923A05F2C0C0923A05EFC027
:10182000B0923A05ECC0A0923A05E9C01092560574
:10183000C0925705B0925805E2C0B092560510927A
:101840005705C0925805DBC0C0925605B0925705A7
:1018500010925805D4C0C0923C05D1C010923C05EE
:10186000CEC0C801B70120E030E040E251E40E9460
:10187000A0380E946E390E943A36F1E069317F0744
:1018800091F021E06A3172072CF46851714009F03F
:10189000B4C00CC091E06C32790759F06D527140C0
:1018A00009F0ABC009C0B4E0BDABA9C0E3E0EDAB4B
:1018B000A6C0F5E0FDABA3C026E02DABA0C0C801DB
:1018C000B70120E030E040E251E40E94A0380E94DD
:1018D0006E390E943A366E57714009F08EC0B4E0FE
:1018E000B0933A058CC0E1E0EEAB89C0822F8653FD
:1018F0008093590584C0F5E0F0933A0580C0C0920A
:101900003D057DC010923D057AC0C801B70120E0B9
:1019100030E040E251E40E94A0380E946E390E94FB
:101920003A3623E06839720739F06959734009F093
:1019300064C098E09DAB63C0A7E0ADAB60C0C0924F
:101940003B055DC010923B055AC06630710534F40A
:10195000633071058CF4772364F409C06730710536
:1019600034F06A3071055CF06E31710511F0DD24E0
:1019700008C005E0D02E05C018E0D12E02C0B9E0A5
:10198000DB2E2430310569F12530310584F4213016
:101990003105A9F1223031051CF4232BC9F02DC0EB
:1019A00022303105C1F02330310539F517C0283018
:1019B0003105E9F02930310524F425303105E9F409
:1019C00013C029303105B1F02E313105B1F403C017
:1019D000C0923E0514C0B0923E0511C0C0924005B1
:1019E0000EC0B09240050BC01092400508C0C092D6
:1019F0003F0505C010923F0502C0A0923905DD20C9
:101A0000B1F0910102C0220F331FDA94E2F78FA9DF
:101A100098AD82239323892B21F0B5E0B09339054B
:101A200006C0EFA9F8ADE22BF32BF8AFEFABCE0178
:101A30000296B301A40192010E949B09882309F038
:101A400006CE80913905882309F019C519827724BB
:101A500055244424A0E83A2EFFEB2F2E80E090E09E
:101A6000A0E0B0E089AB9AABABABBCAB18AAE2E0AC
:101A7000EE2EF12CEC0EFD1E73E0672E16E040C139
:101A80000A810F347CF40D340CF03AC10C340CF0A4
:101A90007EC009340CF05AC00634E9F0073409F06E
:101AA00021C12EC1043509F4B9C0053554F40235FD
:101AB00009F480C003350CF098C0003509F012C15C
:101AC00070C0093509F4DCC00A3509F4F2C00835E4
:101AD00009F008C1BCC0AB80BC80CD80DE80C601EF
:101AE000B50120E030E040E050E00E94CB35181610
:101AF00014F01093390580913B05882381F0809183
:101B00003C05882309F4F8C0C601B50123E333E39B
:101B10004BEC51E40E94A0385B016C01EDC0809158
:101B20003C05882351F0C601B50123E333E34BECB8
:101B300051E40E94A0385B016C01A0924505B0926F
:101B40004605C0924705D0924805CEC02B813C8106
:101B50004D815E8180913C05882351F0CA01B90115
:101B600023E333E34BEC51E40E94A0389B01AC012A
:101B7000E02FFF27E7FDF095EE0FFF1FEE0FFF1F91
:101B8000EE5AFB4F2083318342835383ADC06B8178
:101B90007C818D819E810E946E390E943F3668ABA8
:101BA000A3C08B819C81AD81BE8189AB9AABABAB6D
:101BB000BCAB9AC02B813C814D815E8180913C05FC
:101BC000882351F0CA01B90123E333E34BEC51E41C
:101BD0000E94A0389B01AC012093720530937305DD
:101BE00040937405509375057FC0AB80BC80CD8059
:101BF000DE80C601B50120E030E040E050E00E9408
:101C0000CB35882314F410933905A0924105B09286
:101C10004205C0924305D092440566C0AB80BC80AB
:101C2000CD80DE80C601B50120E030E040E050E02C
:101C30000E94CB35882314F410933905C601B501F1
:101C40000E946E390E943F36609355054DC02B812E
:101C50003C814D815E8180913C05882351F0CA0111
:101C6000B90123E333E34BEC51E40E94A0389B011C
:101C7000AC012F83388749875A8791E0792A34C08D
:101C80002B813C814D815E8180913C05882351F000
:101C9000CA01B90123E333E34BEC51E40E94A038BD
:101CA0009B01AC012B873C874D875E87A2E07A2A97
:101CB0001BC02B813C814D815E8180913C05882336
:101CC00051F0CA01B90123E333E34BEC51E40E9424
:101CD000A0389B01AC012F87388B498B5A8BB4E01D
:101CE0007B2A02C060923905252D342D432D522DBB
:101CF000C901DA015C016D015A2C4B2C3C2C2D2CB6
:101D0000C701BE016D5F7F4FA4019E012F5F3F4F52
:101D10000E949B09882309F0B3CEB72C252D342DC2
:101D2000432D522DC901DA018BA79CA7ADA7BEA7F1
:101D300080913905882309F0A2C380911C05823067
:101D4000C1F0EFA9F8ADF0FF0CC0409141055091F2
:101D500042056091430570914405809140050E94C1
:101D60008C128FA998AD91FF04C080913F050E940D
:101D7000A112AFA9B8ADB2FF13C08E010D5E1F4F07
:101D800080915905B8010E948E21882309F476C3F9
:101D9000AAE5B5E0F8018CE001900D928150E1F7E1
:101DA000BDA9B43009F450C1B53048F4B23089F15E
:101DB000B33008F0BAC0B13009F097C10EC0EDA938
:101DC000E63009F441C1E63008F4AFC0E73009F469
:101DD00046C1E83009F089C181C169A97AA98BA9F6
:101DE0009CA920E030E040E050E00E94CB35882301
:101DF00024F486E08093390578C180911C058230F7
:101E000009F473C169A97AA98BA99CA90E94BC0491
:101E10006CC1F8A9F23011F0F43159F469A97AA92A
:101E20008BA99CA90E946E390E943A3667307105D1
:101E300020F083E0809339055AC1772021F428A946
:101E4000223009F40EC1161617062CF44B01089423
:101E50008108910804C080915905882E99248FA685
:101E60008E010D5E1F4F882DB8010E948E218823A0
:101E700009F404C329E4E22E25E0F22E97E0A92E0E
:101E8000B12CAC0EBD1E680100E010E0672C772479
:101E9000C301002E02C0959587950A94E2F780FF52
:101EA00020C088A9843199F4D7016D917D918D91DD
:101EB0009C91F50120813181428153810E94F1344E
:101EC000D6016D937D938D939C9313970AC0F50172
:101ED00080819181A281B381F60180839183A28365
:101EE000B3830F5F1F4F84E090E0E80EF91EA80E49
:101EF000B91EC80ED91E0330110551F68E010D5EB4
:101F00001F4F8FA5B8010E9483218091590590E051
:101F10008815990509F0EBC0AAE5B5E0F8018CE059
:101F200001900D928150E1F7E2C0772009F46AC078
:101F300087E0C82ED12CCC0EDD1E09E415E0EE247E
:101F4000FF24A72CBB24C5010E2C02C095958795B4
:101F50000A94E2F780FF35C080913D058823F9F0AF
:101F6000D80151966D917D918D919C9154975D967C
:101F70002D913D914D915C9190970E94F2349B017F
:101F8000AC01F60160817181828193810E94F234FB
:101F9000D6016D937D938D939C9313971CC0F6018E
:101FA0006081718182819381D8012D913D914D9104
:101FB0005C910E94F234F601608371838283938383
:101FC0000AC0F80180819181A281B381F6018083EA
:101FD0009183A283B3830894E11CF11C84E090E018
:101FE000C80ED91E0C5F1F4F93E0E916F10409F0EB
:101FF000AACFCE01079640E050E060E87FEB20E0FA
:102000000E941005BE01615E7F4FADA9A33011F49F
:1020100086E001C087E00E948E21882309F42EC249
:102020008E01015E1F4FC80140E050E060E87FEB89
:1020300020E00E941005A9E4B5E0F8018CE00190D1
:102040000D928150E1F753C0BDA9B43011F486E080
:1020500001C087E069E475E00E94832146C07720D3
:1020600021F486E08093390543C009E4C02E05E0E1
:10207000D02E17E0A12EB12CAC0EBD1E00E010E05A
:10208000E72CFF24C701002E02C0959587950A947E
:10209000E2F780FF17C0F601608171818281938130
:1020A00021893289438954890E94F134D5012D91C7
:1020B0003D914D915C910E94F134F601658F768FD0
:1020C000878F90A30F5F1F4F84E090E0C80ED91E4A
:1020D000A80EB91E03301105A9F609C08CE0E6E68A
:1020E000F5E0DF011D928A95E9F7B72C01C0BB240A
:1020F000BFA9B2FD03C0BB2009F4ACC180913B0570
:10210000882399F06BA57CA58DA59EA520E030E0E5
:1021100040E050E00E94CB3588233CF480913A05A2
:10212000853019F086E080933905EEA9EE2339F069
:1021300080913A05823018F086E0809339058091CD
:102140003905882309F09BC1B7E0CB2ED12CCC0EEA
:10215000DD1E09E415E0EE24FF248B2C9924C40134
:102160000E2C02C0959587950A94E2F780FF39C03E
:10217000FEA9FF2309F03FC080913D058823F9F0B7
:10218000D80151966D917D918D919C9154975D965A
:102190002D913D914D915C9190970E94F2349B015D
:1021A000AC01F60160817181828193810E94F234D9
:1021B000D6016D937D938D939C9313971CC0F6016C
:1021C0006081718182819381D8012D913D914D91E2
:1021D0005C910E94F234F601608371838283938361
:1021E0000AC0F80180819181A281B381F6018083C8
:1021F0009183A283B3830894E11CF11C84E090E0F6
:10220000C80ED91E0C5F1F4F93E0E916F10409F0C8
:10221000A6CF80913A05843040F48230B0F588230F
:1022200071F0813009F009C115C0843009F4E8C0AB
:10223000853009F002C1BB2009F4FFC0E3C0BB2018
:1022400009F4E0C0CE01079640E050E060E87FEB83
:1022500020E018C0BB2009F4D5C0A0913B05AA23FB
:1022600041F4509045054090460530904705209038
:102270004805CE010796252D342DE32DF22DA90119
:10228000BF012A2F0E941005D8C081E090E0009085
:10229000580502C0880F991F0A94E2F780958B2198
:1022A00009F4B0C0A0907205B0907305C090740599
:1022B000D0907505C601B50120E030E040E050E067
:1022C0000E94CB358823B9F5E0915605F0E0EE0F7A
:1022D000FF1FEE0FFF1FEA58FA4FE080F1800281E6
:1022E0001381C801B70120E030E040E050E00E94D7
:1022F000CB358823B1F4E0915705F0E0EE0FFF1FD6
:10230000EE0FFF1FEA58FA4F60817181828193813D
:1023100020E030E040E050E00E94CB35882309F413
:1023200071C0C601B50120E030E040E050E00E94FD
:10233000CB35882349F0CE0107960E94C4098091CD
:1023400039058823D1F09BC0E0915705F0E0EE0FEE
:10235000FF1FEE0FFF1FEA58FA4F208131814281A3
:102360005381C801B7010E94DB37609372057093F7
:102370007305809374059093750530913A0520910B
:10238000560500915705E090580580903B05882040
:1023900041F4509045054090460530904705209007
:1023A000480500D000D00F924DB75EB74F5F5F4F2A
:1023B0008091720590917305A0917405B091750597
:1023C000EDB7FEB781839283A383B48380E032307C
:1023D00009F481E0DA0114968C9389E495E0BE015A
:1023E000695F7F4F46E755E0A52CB42CC32CD22C57
:1023F0000E94DF050F900F900F900F900F901DC05F
:10240000BB2021F486E08093390517C0A0913B05DD
:10241000AA2341F450904505409046053090470569
:1024200020904805CE010796252D342DE32DF22D61
:10243000A901BF012A2F0E944805809139058823F0
:10244000F1F4A9E4B5E0FE0137968CE001900D921D
:102450008150E1F780913E05882369F00E940814BD
:1024600010922B0580913E05823019F40E94890458
:1024700002C010923E058091390501C08AE0E896BD
:102480000FB6F894DEBF0FBECDBFCF91DF911F9185
:102490000F91FF90EF90DF90CF90BF90AF909F9003
:1024A0008F907F906F905F904F903F902F90089506
:1024B000E9E3F5E089E4DF011D928A95E9F780916F
:1024C000730690917406A0917506B091760680937C
:1024D000450590934605A0934705B0934805109293
:1024E000560591E09093570582E0809358059093AC
:1024F0003D0580915905BF016F5D7F4F0E948E2180
:10250000882319F48AE00E942F2D0895249A259A91
:102510002C9808952C9808951F93182F0E94081442
:10252000112311F42C9806C0113011F42D9801C01C
:102530002D9A2C9A1F9108953B9A43980895439899
:1025400008951F93182F0E940814113011F4439A14
:1025500001C043981F910895E0ECF0E08081826013
:1025600080831092C50080E18093C400E1ECF0E02C
:1025700080818061808380818860808380818068A1
:1025800080830895282FE09102019E2F9F5F903451
:1025900031F490E004C080911D0584FD0FC080914E
:1025A00003019817C1F3F0E0EE5FF94F2083909399
:1025B00002018091C10080628093C10008951F9242
:1025C0000F920FB60F9211248F939F93EF93FF9367
:1025D00080910301E82FF0E0EE5FF94F9081909336
:1025E000C600982F9F5F903409F490E09093030108
:1025F00080910201981729F48091C1008F7D80930A
:10260000C100FF91EF919F918F910F900FBE0F909E
:102610001F9018959091010180910001891711F484
:102620008FEF0895E92FF0E0EE57FA4F8081E92F00
:10263000EF5FE03809F4E0E0E09301010895809154
:1026400000018093010108951F920F920FB60F921F
:1026500011242F933F934F935F936F937F938F93A7
:102660009F93AF93BF93EF93FF932091C6002132C6
:10267000A1F0223218F42831B9F413C02F3319F025
:102680002E3791F404C080911D05816003C08091B4
:102690001D05826080931D0518C080911D0588600E
:1026A000F9CF0E94890411C0E09100019E2F9F5F25
:1026B000903809F490E080910101981731F0F0E032
:1026C000EE57FA4F208390930001FF91EF91BF9155
:1026D000AF919F918F917F916F915F914F913F91BA
:1026E0002F910F900FBE0F901F90189580912B0582
:1026F000882329F080911D05826080931D0508952F
:10270000CF93DF9380911D05882309F478C0C82FEB
:10271000D0E0CE0180769070892B09F181E0809322
:102720001C05C6FF14C0C5FF02C08FEF01C08DEFAE
:102730000E94FF3281E00E94052D80911D058F7E51
:1027400080931D0580911D0584FFFCCF03C08EEF93
:102750000E94FF3280911D058F7980931D05C4FF73
:1027600004C081E080931B0550C0C0FF07C00E94D9
:102770008E2D80911D058E7F80931D05C3FF12C095
:1027800080911C05803149F480E280931C050E94F1
:1027900003150E94251510922B0580911D05877F3A
:1027A00080931D05C1FF1AC080911C05883089F4F3
:1027B00080E180931C050E9425150E94971480914A
:1027C000830681FF04C081E080932B0502C0109234
:1027D0002B0580911D058D7F80931D05C2FF0FC0C5
:1027E0000E945122892B21F088E080931C0502C0B1
:1027F00010921C0580911D058B7F80931D05809193
:102800001C05847311F00E942515DF91CF91089566
:1028100080911C05803151F481E080932B0506C026
:102820000E94801380911B05882341F40E9451224D
:10283000892BB1F780911C05803191F308950F9396
:102840001F930E94002D80911C05813021F482E0AD
:102850000E94052D2DC010921C0584E091E00E947D
:102860006D3326C09A3011F09D3021F5E12FF0E054
:10287000EC5FFE4F10820E94801380911B0588231D
:10288000B9F480910401882389F0843229F484E02A
:1028900091E00E9499330AC080911C05813011F4A7
:1028A0008CE004C084E091E00E94D80A0E942F2DA1
:1028B00000E013C0002321F0993209F500E01FC0A9
:1028C0009132E8F09F32D9F0983211F401E017C04C
:1028D000153428F08EE00E942F2D10E010C0892FB3
:1028E0008156A12FB0E0E12FEF5F8A3120F4AC5F79
:1028F000BE4F905202C0AC5FBE4F9C931E2F0E94F1
:102900000A13982F8F3F09F0ADCF80912B058823B4
:1029100029F080911D05826080931D050E9480131F
:1029200080911B05882359F31F910F910895809181
:10293000830682FF02C0289A01C0289880911C0556
:102940008471E1F0809178068093D20180917706BE
:102950008093D1018091720690E0A0E0B0E00297F0
:10296000A109B109880F991FAA1FBB1F81958093E8
:10297000D00180916F00826080936F0008951F9254
:102980000F920FB60F9211248F939F939BB180915A
:1029900077068C71937E892B8BB915BC9F918F9193
:1029A0000F900FBE0F901F9018958AB18C618AB955
:1029B0008BB1837E90917706892B8BB9209A8AB14F
:1029C000806E8AB98BB18F7190917806892B8BB903
:1029D000E1E8F0E080818F7E808380818860808361
:1029E000E0E8F0E080818C7F808380818F7080833D
:1029F000EEE6F0E08081887F808314BC15BC808186
:102A0000816080830895CF93DF93C091EA01D091D4
:102A1000EB012097B9F081E08093EF01209105024E
:102A2000309106024091070250910802CA01B90193
:102A30000E94A038698B7A8B8B8B9C8B1092EB0158
:102A40001092EA01DF91CF9108952F923F924F9219
:102A50005F926F927F928F929F92AF92BF92CF922E
:102A6000DF92EF92FF920F931F93DF93CF93CDB737
:102A7000DEB7E9970FB6F894DEBF0FBECDBF17C61D
:102A80008091EA019091EB01892B09F07EC20E94AE
:102A900051229093EB018093EA01892B09F40EC631
:102AA0008091EF01882319F01092EF01CAC0809144
:102AB000EE018F5F8093EE01853011F41092EE01EC
:102AC000E091EE0121E1E29FF0011124E65BFE4F6F
:102AD000F093ED01E093EC010091EA011091EB011C
:102AE000D8018C91808311962D913D914D915C91EF
:102AF000149793E0220F331F441F551F9A95D1F767
:102B0000218332834383548315962D913D914D91BA
:102B10005C91189783E0220F331F441F551F8A953D
:102B2000D1F7258336834783508719962D913D91A0
:102B30004D915C911C9773E0220F331F441F551F6A
:102B40007A95D1F721873287438754871D962D9137
:102B50003D914D915C91509763E0220F331F441FCC
:102B6000551F6A95D1F7258736874787508B1D9665
:102B70006D917D918D919C9150970E946B366093E1
:102B8000F0017093F1018093F2019093F301F80149
:102B900025A136A147A150A50E94D2359B01AC01C9
:102BA0006093F4017093F5018093F6019093F7011F
:102BB00060E070E080EA9FE30E94D2356093F80104
:102BC0007093F9018093FA019093FB0180E090E00B
:102BD000A0E0B0E08093FC019093FD01A093FE0182
:102BE000B093FF0180911C058032E1F420910D0229
:102BF00030910E0240910F02509110022093050275
:102C0000309306024093070250930802CA01B901AB
:102C10000E94A038D80151966D937D938D939C931B
:102C200054970FC0F80161897289838994890E9441
:102C30002D396093050270930602809307029093EA
:102C4000080280E090E0A0E0B0E080930102909361
:102C50000202A0930302B09304020091EA011091D2
:102C6000EB01D80191968D919D910D90BC91A02D75
:102C700088AB99ABAAABBBAB60E070E080E09FE3B0
:102C800028A939A94AA95BA90E94D2351B012C01A8
:102C900080911C05803209F056C0B2E0B09300026A
:102CA000F801A5A0B6A0C7A0D0A4618872888388C7
:102CB0009488C201B101A40193010E94A0389B0134
:102CC000AC01C601B5010E94F1347B018C0120E00A
:102CD00030E040E050E00E94CB358823FCF468A946
:102CE00079A98AA99BA920E030E040E050EC0E943D
:102CF000A038A60195010E94A0389B01AC01C40137
:102D0000B3010E94F2340E942D3960930D0270933A
:102D10000E0280930F029093100237C1E0920102DD
:102D2000F0920202009303021093040280E090E00C
:102D3000A0E0B0E080930D0290930E02A0930F02EA
:102D4000B093100222C110920002F80185A196A151
:102D5000A7A1B0A58093110290931202A093130231
:102D6000B09314020E94C5235B016C0160930D02B5
:102D700070930E0280930F0290931002A6019501AA
:102D80000E94A0383B014C012091EA013091EB01F7
:102D900039AF28AFD90195968D919D910D90BC9139
:102DA000A02D8B8F9C8FAD8FBE8FF90161897289A9
:102DB00083899489A40193010E94F1349B01AC01A1
:102DC000C201B1010E94A0389B01AC016B8D7C8DCA
:102DD0008D8D9E8D0E94F23420E030E040E05FE374
:102DE0000E94A0387B018C0120E030E040E050E000
:102DF0000E94CE3718160CF0B4C0C801B7012B8D55
:102E00003C8D4D8D5E8D0E94CB3588230CF095C096
:102E1000A8ADB9AD5D966D917D918D919C91909786
:102E2000A40193010E94F1349B01AC01C201B101E4
:102E30000E94A038609315027093160280931702C7
:102E400090931802A80197010E94CB3588230CF0BB
:102E500047C0E8ADF9ADE58CF68C078D10A1C8012F
:102E6000B7010E942D396093090270930A02809382
:102E70000B0290930C02A8ADB9AD5196AD90BD90E8
:102E8000CD90DC905497C601B501A80197010E942E
:102E9000CB35882321F4B1E0B093000276C0C8019D
:102EA000B701A60195010E94F1349B01AC01C2015A
:102EB000B1010E94A0389B01AC0160911102709198
:102EC000120280911302909114020E94F1346093D7
:102ED000110270931202809313029093140255C052
:102EE000E0921102F0921202009313021093140266
:102EF000E0921502F0921602009317021093180246
:102F0000E8ADF9AD21A132A143A154A1CA01B90193
:102F10000E94F234A80197010E94A038A4019301F5
:102F20000E94F2340E942D396093090270930A02C4
:102F300080930B0290930C0228C0F2E0F093000201
:102F40008091050290910602A0910702B0910802BB
:102F50008093090290930A02A0930B02B0930C0293
:102F600014C080E090E0A0E0B0E080931102909364
:102F70001202A0931302B0931402A0920902B0921D
:102F80000A02C0920B02D0920C028091E701B6E0D7
:102F90008B9FD0011124A156BE4FB9AFA8AF80912D
:102FA000EE0112968C93E091EA01F091EB01FA8F19
:102FB000E98F85A196A1A7A1B0A58D8B9E8BAF8B24
:102FC000B88FBC01CD012091F8013091F9014091F9
:102FD000FA015091FB010E94F1346CA37DA38EA3F2
:102FE0009FA320E030E040E050E00E94CB358823F2
:102FF00044F480E090E0A0E0B0E08CA39DA3AEA3F9
:10300000BFA38091110290911202A0911302B0917E
:103010001402898B9A8BAB8BBC8B809109029091A7
:103020000A02A0910B02B0910C028D879E87AF8798
:10303000B88B8091150290911602A0911702B09161
:10304000180289879A87AB87BC878091010290918B
:103050000202A0910302B09104028D839E83AF838C
:10306000B88780910D0290910E02A0910F02B0914D
:10307000100289839A83AB83BC838091050290916F
:103080000602A0910702B091080288A399A3AAA3FF
:10309000BBA3909100029F8FAD88BE88CF88D88C4B
:1030A0008EE393ECAEE2B9E38CA79DA7AEA7BFA7D2
:1030B00080E090E0A0E0B0E088A799A7AAA7BBA70E
:1030C0000F2EFEE36F2EF3EC7F2EFEE28F2EF9E340
:1030D0009F2EF02D9F8D992321F0913009F0B3C0E0
:1030E00080C0C401B301A98DBA8D91962D913D91F7
:1030F0004D915C9194970E94A0387B018C0120E057
:1031000030E040E05FE30E94A0389B01AC0168A181
:1031100079A18AA19BA10E94F2349B01AC01C40158
:10312000B3010E94A0389B01AC01C601B5010E9409
:10313000F1345B016C0129893A894B895C890E94D1
:10314000CB3588230CF040C069897A898B899C89AA
:1031500029853A854B855C850E94CB35882319F4F7
:10316000B2E0BF8F02C0E1E0EF8F6D897E898F8969
:10317000988D29893A894B895C890E94F1349B0199
:10318000AC010E94F2347B018C0168A179A18AA173
:103190009BA12D853E854F8558890E94F2349B0165
:1031A000AC01C801B7010E94D2353B014C01A9888E
:1031B000BA88CB88DC888D859E85AF85B88988A341
:1031C00099A3AAA3BBA3B0C068A179A18AA19BA11E
:1031D000A80197010E94F23468A379A38AA39BA354
:1031E000A3C06D857E858F859889A40193010E9477
:1031F000A0389B01AC01C601B5010E94F1347B01EE
:103200008C0129853A854B855C850E94CB3587FDED
:1032100003C05701680188C0C601B50129853A85F8
:103220004B855C850E94F1342D853E854F855889FC
:103230000E94D2353B014C01A984BA84CB84DC8442
:1032400092E09F8F71C0C401B301A98DBA8D919690
:103250002D913D914D915C9194970E94A0387B01F6
:103260008C0168A179A18AA19BA1A80197010E9464
:10327000CE371816ACF5C801B70120E030E040E0C9
:103280005FEB0E94A0389B01AC0168A179A18AA1E3
:103290009BA10E94F2349B01AC01C401B3010E94C6
:1032A000A0389B01AC01C601B5010E94F1341B019D
:1032B0002C012D813E814F8158850E94CE371816F2
:1032C0007CF468A179A18AA19BA1A80197010E9421
:1032D000F13468A379A38AA39BA36201510124C09E
:1032E000C601B5012D813E814F8158850E94F13480
:1032F0009B01AC010E94F2347B018C0168A179A191
:103300008AA19BA129813A814B815C810E94F23480
:103310009B01AC01C801B7010E94D2353B014C01B1
:10332000AD80BE80CF80D88468A579A58AA59BA5ED
:10333000A40193010E94F23468A779A78AA79BA7EA
:103340002CA53DA54EA55FA50E94CB3588232CF466
:103350006CA57DA58EA59FA518C0C601B5012CA1A1
:103360003DA14EA15FA10E94CE3718160CF56CA5A9
:103370007DA58EA59FA52EE333EC4EE259E30E9476
:10338000F2346CA77DA78EA79FA728A539A54AA5CB
:103390005BA50E94F1343B014C01C601B5012D81B2
:1033A0003E814F8158850E94CE3718160CF492CE7C
:1033B00088A199A1AAA1BBA18093050290930602BE
:1033C000A0930702B09308029F8D90930002C6015C
:1033D000B5012091F4013091F5014091F601509131
:1033E000F7010E94A0386CAB7DAB8EAB9FAB0E9407
:1033F000B8351B012C016091F0017091F1018091B1
:10340000F2019091F3010E94B8353B014C01A201F9
:1034100091010E94F1340E943F36A8ADB9AD6D9381
:103420007C93672BB1F580911C05803291F580E08B
:1034300090E0A0E0B0E08093050290930602A09394
:103440000702B09308028093FC019093FD01A093C2
:10345000FE01B093FF012092F0013092F101409201
:10346000F2015092F3010091EA011091EB01C201C7
:10347000B1012091F4013091F5014091F601509194
:10348000F7010E94D235F80165A376A387A390A720
:1034900002C168A579A58AA59BA52091FC01309160
:1034A000FD014091FE015091FF010E94F2347B0129
:1034B0008C01C401B3012CA93DA94EA95FA90E94AA
:1034C000F1349B01AC01C801B7010E94D2357B01E8
:1034D0008C01C201B1012CA93DA94EA95FA90E948E
:1034E000F134A80197010E94A0386093FC01709309
:1034F000FD018093FE019093FF01C801B70120EC0C
:1035000031EE44E65EE40E94A0380E94B8350E9485
:103510003F36AB01BC01403DF7E05F07F0E06F07CD
:10352000F0E07F0728F4A8ADB9AD15961C9233C022
:10353000403ABFE05B07B0E06B07B0E07B0728F4E0
:1035400021E0E8ADF9AD25830FC040343FE15307DA
:1035500030E0630730E0730710F4E2E001C0E3E01D
:10356000A8ADB9AD1596EC93A8ADB9AD15962C9153
:103570001597022E04C076956795579547950A943E
:10358000D2F78D919C91119702C0880F991F2A95AF
:10359000E2F78D939C934030B0E05B07B1E06B079E
:1035A000B0E07B0728F4E8ADF9AD5483438308C04D
:1035B000EFEFFFEFA8ADB9AD1496FC93EE93139720
:1035C0008091E8018093E7018F5F8093E801863066
:1035D00011F41092E801C601B50120910102309169
:1035E000020240910302509104020E94CE37181645
:1035F000ACF4E091EA01F091EB01A5A2B6A2C7A25A
:10360000D0A68CA99DA9AEA9BFA98093F0019093E3
:10361000F101A093F201B093F30149C0C601B501D5
:1036200020E030E040E050E00E94CE371816CCF5A4
:1036300080E090E0A0E0B0E0809305029093060265
:10364000A0930702B09308028093FC019093FD01C0
:10365000A093FE01B093FF012092F0013092F1019E
:103660004092F2015092F3010091EA011091EB01B6
:10367000C201B1012091F4013091F5014091F601B0
:103680005091F7010E94D235D80195966D937D93A4
:103690008D939C9398970E94BC2388E080931C058F
:1036A0000DC01092EB011092EA010E943D22909110
:1036B000E6018091E801981709F0E2C9E9960FB692
:1036C000F894DEBF0FBECDBFCF91DF911F910F9158
:1036D000FF90EF90DF90CF90BF90AF909F908F9032
:1036E0007F906F905F904F903F902F9008958091C2
:1036F0006F008D7F80936F0080918100887F816053
:10370000809381001092E901909179069F3F21F406
:1037100080911D0585FF0AC080911C05843031F021
:10372000892F90E00E949B2891E001C090E0809159
:10373000830682FF02C081E09827992311F0289A1E
:103740000895289808950E94771B8BE2EEEEF1E031
:10375000DF011D928A95E9F783E2E3ECF1E0DF01F6
:103760001D928A95E9F71092E5011092E4011092FA
:10377000EB011092EA011092E6011092E70181E05C
:103780008093E8011092E90108951F920F920FB6FD
:103790000F9211242F933F934F935F936F937F93D7
:1037A0008F939F93AF93BF93CF93DF93EF93FF9349
:1037B0008091E901882309F024C29BB18091D20154
:1037C000807E9F71892B8BB98BB1837E9091D101C3
:1037D000892B8BB98091D00186BD82E085BD81E0C7
:1037E0008093E90178948091E4019091E501892B1F
:1037F00009F09FC09091E6018091E701891709F4D3
:1038000090C09091E60186E0989FE0011124C15696
:10381000DE4FD093E501C093E4018B819C819093AE
:10382000890080938800888199819093E00180933A
:10383000DF019A818091E101891761F19093E101A3
:10384000E1E19E9FF0011124E65BFE4FF093E3015E
:10385000E093E20185859685A785B089B695A79501
:10386000979587958093C3019093C401A093C50158
:10387000B093C6018093C7019093C801A093C9017A
:10388000B093CA018093CB019093CC01A093CD015A
:10389000B093CE01E091E201F091E30180917806CE
:1038A000908189278093D2012D8181819281A3818A
:1038B000B481022E04C0B695A795979587950A9472
:1038C000D2F78093D3019093D401A093D501B09304
:1038D000D60185819681A781B085022E04C0B69558
:1038E000A795979587950A94D2F78093D7019093DF
:1038F000D801A093D901B093DA0181859285A3857F
:10390000B48504C0B695A795979587952A95D2F763
:103910008093DB019093DC01A093DD01B093DE0185
:1039200008C00E94771B80911D05846080931D054F
:1039300068C10E94E42C1092D1012091D3013091F2
:10394000D4014091D5015091D6018091C30190914D
:10395000C401A091C501B091C601280F391F4A1FAB
:103960005B1F2093C3013093C4014093C501509362
:10397000C601E091E201F091E30185859685A78576
:10398000B08982179307A407B507A8F584E0809350
:10399000D10185859685A785B089281B390B4A0BEF
:1039A0005B0B2093C3013093C4014093C501509336
:1039B000C601808185FF0CC080911F059091200574
:1039C000A0912105B09122050197A109B1090BC071
:1039D00080911F0590912005A0912105B0912205AD
:1039E0000196A11DB11D80931F0590932005A09302
:1039F0002105B09322052091D7013091D801409143
:103A0000D9015091DA018091C7019091C801A0912C
:103A1000C901B091CA01280F391F4A1F5B1F2093AB
:103A2000C7013093C8014093C9015093CA018585ED
:103A30009685A785B08982179307A407B507B8F5BF
:103A40008091D10188608093D10185859685A78575
:103A5000B089281B390B4A0B5B0B2093C7013093AD
:103A6000C8014093C9015093CA01808186FF0CC0F0
:103A70008091230590912405A0912505B0912605FC
:103A80000197A109B1090BC08091230590912405EC
:103A9000A0912505B09126050196A11DB11D809329
:103AA000230590932405A0932505B0932605209126
:103AB000DB013091DC014091DD015091DE0180910C
:103AC000CB019091CC01A091CD01B091CE01280FF6
:103AD000391F4A1F5B1F2093CB013093CC014093C9
:103AE000CD015093CE0185859685A785B089821733
:103AF0009307A407B507B8F58091D1018061809341
:103B0000D10185859685A785B089281B390B4A0B7D
:103B10005B0B2093CB013093CC014093CD015093AC
:103B2000CE01808187FF0CC08091270590912805E8
:103B3000A0912905B0912A050197A109B1090BC0EF
:103B40008091270590912805A0912905B0912A051B
:103B50000196A11DB11D8093270590932805A09380
:103B60002905B0932A0580911C05843039F52091F0
:103B70001E058091D10128232093D1018091C3019A
:103B80009091C401A091C501B091C6010097A10513
:103B9000B10519F024602093D1018091C701909163
:103BA000C801A091C901B091CA010097A105B10552
:103BB00029F08091D10188608093D1018091DF014B
:103BC0009091E00101979093E0018093DF01892BB0
:103BD00079F41092E5011092E4018091E6018F5F83
:103BE0008093E6018091E601863011F41092E6019F
:103BF000809177069091D10189278093D10110920D
:103C0000E901FF91EF91DF91CF91BF91AF919F912A
:103C10008F917F916F915F914F913F912F910F9075
:103C20000FBE0F901F901895F999FECF92BD81BDE0
:103C300081E08FBB80B50895F894F999FECF92BDCD
:103C400081BD81E08FBB40B54627842F992787FD32
:103C50009095262F30E082239323892B39F06F3FF4
:103C600019F060BD84E006C084E104C0442321F063
:103C700060BD84E28FBBF99A789408958F929F92E9
:103C8000AF92BF92CF92DF92EF92FF920F93DF93AA
:103C9000CF9300D0CDB7DEB75C016B017A014A014A
:103CA00000E01EC0002319F021E030E008C0202F02
:103CB000332727FD30952227330F221F3327F601A4
:103CC00061916F01062F020F9C012F5F3F4F3A83D6
:103CD00029830E941C1E08948108910889819A8179
:103CE00081149104F9F6C7018A0D9B1D602F0E9473
:103CF0001C1E0F900F90CF91DF910F91FF90EF90CE
:103D0000DF90CF90BF90AF909F908F900895CF930A
:103D1000DF93EC01FB019A0190E0B1E019C0F99941
:103D2000FECFF2BDE1BDBFBBA0B5992319F081E084
:103D300090E008C0892F992787FD90958827990FD3
:103D4000881F992731969A2F980FA99321503040B8
:103D50002115310521F7460F571FF999FECF52BDA6
:103D600041BD81E08FBB80B520E030E0981711F4B1
:103D700021E030E0C901DF91CF91089580E090E02B
:103D80000E94141E863011F020E00CC082E496E000
:103D900061E070E041E550E00E94871E20E0892B41
:103DA00009F021E0822F089580E090E066E00E9413
:103DB0001C1E81E090E062E476E041E550E00E9464
:103DC0003E1E0895EF92FF920F931F93CF93DF93C0
:103DD000EC017A018B01CB01BA0120E030E040E038
:103DE00050E00E94CB35882314F488E0ADC1FE0179
:103DF000C032D10540F4EC5CFF4FEE0FFF1F059081
:103E0000F491E02D099486E09FC1CC0FDD1FCC0F0B
:103E1000DD1FCE5BD94FE882F9820A831B8391C1F3
:103E2000E0924E06F0924F06009350061093510612
:103E300088C1E0925206F092530600935406109304
:103E400055067FC1E0925606F09257060093580639
:103E50001093590676C1C801B70120E030E040E771
:103E600052E40E94A03820E030E040E752E40E9493
:103E7000A03860935A0670935B0680935C0690931B
:103E80005D065FC1C801B70120E030E040E752E4C1
:103E90000E94A03820E030E040E752E40E94A038C1
:103EA00060935E0670935F06809360069093610650
:103EB00048C1C801B70120E030E040E752E40E9469
:103EC000A03820E030E040E752E40E94A038609340
:103ED000620670936306809364069093650631C111
:103EE000D801C701B0588093660690936706A093E7
:103EF0006806B093690625C1D801C701B058809300
:103F00006A0690936B06A0936C06B0936D0619C178
:103F1000D801C701B05880936E0690936F06A093A6
:103F20007006B09371060DC1C801B70120E030E002
:103F300040E450E40E94CB35882314F489E004C1A6
:103F4000C801B7010E9403390E943F366093720690
:103F5000F8C0E0927306F092740600937506109311
:103F60007606EFC0C801B7010E946E390E943F3645
:103F700060937706E6C0C801B7010E946E390E94BF
:103F80003F3660937806DDC0C801B7010E9403394F
:103F90000E943F3660937906D4C0D801C701BF772D
:103FA00080937A0690937B06A0937C06B0937D065F
:103FB000C8C0E0927E06F0927F06009380061093C0
:103FC0008106BFC0C801B7010E9403390E943F3675
:103FD00060938206B6C0C801B70120E030E040E03F
:103FE00050E00E94CB35882321F0809183068160C8
:103FF00011C0809183068E7F0DC0C801B70120E0FB
:1040000030E040E050E00E94CB35882331F08091D1
:10401000830682608093830694C0809183068D7F9F
:10402000F9CFC801B70120E030E040E050E00E9445
:10403000CB35882321F0809183068460EBCF80917B
:1040400083068B7FE7CFC801B70120E030E040E076
:1040500050E00E94CB35882321F080918306806454
:10406000D9CF809183068F7BD5CFC801B70120E0DF
:1040700030E040E050E00E94CB35882341F0809151
:10408000830684FD02C08DE05FC08062C3CF809153
:1040900083068F7DBFCFC801B70120E030E040E04C
:1040A00050E00E94CB35882321F080918306886000
:1040B00003C080918306877F809383060E94B42883
:1040C00040C0C801B70120E030E040E050E00E946D
:1040D000CB35882321F08091830680619BCF80912E
:1040E00083068F7C97CFC801B7010E946E390E946A
:1040F0003F366093840625C0E0928506F0928606DE
:1041000000938706109388061CC0E0928906F092FF
:104110008A0600938B0610938C0613C0C801B70162
:104120000E9403390E943F3670938E0660938D067D
:1041300008C0E0928F06F0929006009391061093CB
:1041400092060E94D41E80E0DF91CF911F910F91C3
:10415000FF90EF90089586EF9AE7ADE9B3E480937E
:10416000420690934306A0934406B093450680937D
:10417000460690934706A0934806B093490680935D
:104180004A0690934B06A0934C06B0934D068AE0E6
:104190008093720680E090E0AEE7B3E4809373060C
:1041A00090937406A0937506B093760620E030ECE9
:1041B0004EE154E420934E0630934F064093500650
:1041C0005093510620935206309353064093540661
:1041D0005093550620935606309357064093580641
:1041E0005093590680E098ECAFE2B8E480935A0609
:1041F00090935B06A0935C06B0935D0680935E0689
:1042000090935F06A0936006B09361068093620668
:1042100090936306A0936406B09365068FE692E1DF
:10422000A3E0BBE380937E0690937F06A093800675
:10423000B09381061092770680EC809378068AE02E
:1042400097EDA3EABCE380937A0690937B06A09354
:104250007C06B0937D0682E08093830610928406EC
:1042600080E090E0A8E4B2E480938506909386060F
:10427000A0938706B09388062093890630938A0618
:1042800040938B0650938C068AEF90E090938E06B5
:1042900080938D0680E090E0A0E8BFE380938F06D6
:1042A00090939006A0939106B093920689E1809333
:1042B000790683E08093820680E090E0A1E6B3EC8B
:1042C0008093660690936706A0936806B09369068C
:1042D00080E090E0AAEFB2EC80936A0690936B06C0
:1042E000A0936C06B0936D0680E090E0AAE2B3EC78
:1042F00080936E0690936F06A0937006B09371063C
:104300000E94D41E08959DE0899FC0011124805011
:104310009E4F4CE050E00E943E1E08950F931F9365
:10432000CF93DF93162F072F9DE0899FE001112483
:10433000C050DE4F862F972FBE014CE050E00E9408
:10434000871E892B11F081E00FC0E12FF02F8CE048
:10435000DF011D928A95E9F7CE01612F702F4CE0A5
:1043600050E00E943E1E80E0DF91CF911F910F919F
:104370000895EF92FF921F93DF93CF93CDB7DEB7EF
:104380002C970FB6F894DEBF0FBECDBF0E94BE1EA5
:10439000882339F48AE00E942F2D0E94AB200E94CE
:1043A000003110E07E010894E11CF11C812FB7015F
:1043B0000E948E21882319F48AE00E942F2D1F5F0E
:1043C0001830A1F72C960FB6F894DEBF0FBECDBF04
:1043D000CF91DF911F91FF90EF900895BC0180EE87
:1043E00093E046E450E00E943E1E0895CF93DF9391
:1043F000EC0160EE73E046E450E00E94871E892BDA
:1044000011F081E009C0188280EE93E0BE0146E41D
:1044100050E00E943E1E80E0DF91CF91089597E426
:10442000899FC001112480509D4F46E450E00E94B6
:104430003E1E08950F931F93CF93DF938B0197E454
:10444000899FE0011124C050DD4FCB01BE0146E43D
:1044500050E00E94871E892B11F081E009C0F8010D
:104460001082CE01B80146E450E00E943E1E80E07A
:10447000DF91CF911F910F9108952091FB048091BE
:10448000FC04821769F0922F9F5F923109F490E04B
:104490008091FE04281711F49093FE049093FB047E
:1044A00008959091FB048091FC04891719F420E091
:1044B00030E006C089E2989F90011124275E3D4FAD
:1044C000C901089520E09091FB048091FD049817A4
:1044D00009F421E0822F089580911F059091200515
:1044E000A0912105B09122058093FF0490930005CF
:1044F000A0930105B09302058091230590912405B6
:10450000A0912505B091260580930305909304059D
:10451000A0930505B0930605809127059091280585
:10452000A0912905B0912A0580930705909308056D
:10453000A0930905B0930A0508954F925F926F9278
:104540007F928F929F92AF92BF92CF92DF92EF9223
:10455000FF920F931F93CF93DF938091FC048823E6
:1045600009F482E1782E7A946090FE04761409F4BE
:10457000F2C089E2789E4001112489E192E0880E20
:10458000991EF401A588B688C788D08C21A132A1D4
:1045900043A154A1CA01B9010E94F234F40125A13A
:1045A00036A147A150A50E94A0387B018C01B5011E
:1045B000C601A80197010E94CB3587FD04C0D80130
:1045C000C70157016D01C501D601F401818B928BA2
:1045D000A38BB48B772011F432E1732E7A94761486
:1045E00009F04EC08091FB04681609F050C00E948B
:1045F00003154DC0769CE0011124C75EDD4F772086
:1046000011F422E1722E7A948091FB04781611F451
:104610000E940315AD88BE88CF88D88C69897A89B5
:104620008B899C89A60195010E94CB35882331F1A5
:1046300029A13AA14BA15CA1CA01B9010E94F2349F
:104640002DA13EA14FA158A50E94A038F4012189B7
:104650003289438954890E94F2347B018C01A6017E
:1046600095010E94CB3588232CF4E98AFA8A0B8BBA
:104670001C8B04C0A98ABA8ACB8ADC8A4E0102C08C
:1046800099E2692E8091FE04781609F0B3CFA090CC
:10469000FE04BA2CB394F2E1BF1609F4BB2489E2FC
:1046A000A89E80011124075E1D4F5090FC0489E2F2
:1046B000482E4CC0B49CE0011124C75EDD4FF801C8
:1046C000C188D288E388F48869887A888B889C8836
:1046D000C701B601A40193010E94CB3588231CF5C4
:1046E000F80121A132A143A154A1CA01B9010E943C
:1046F000F234F80125A136A147A150A50E94A038A7
:104700009B01AC01C701B6010E94F2347B018C0110
:10471000A40193010E94CB3588232CF4E98AFA8AFC
:104720000B8B1C8BAB2C69897A898B899C892D8991
:104730003E894F89588D0E94CB35882309F4AB2CD4
:10474000B394F2E1BF1609F4BB248E01B51409F04D
:10475000B1CFA092FE04DF91CF911F910F91FF90F6
:10476000EF90DF90CF90BF90AF909F908F907F9011
:104770006F905F904F9008950E9403158091FB0405
:104780008093FE040E949D2208952091FB042F5FD8
:10479000223109F420E08091FC04281729F460E01C
:1047A00070E080E090E012C030E089E290E0289F65
:1047B000F001299FF00D389FF00D1124E75EFD4FA9
:1047C00061897289838994890E942D3908952F9275
:1047D0003F924F925F926F927F928F929F92AF9291
:1047E000BF92CF92DF92EF92FF920F931F93DF93CE
:1047F000CF93CDB7DEB7E2970FB6F894DEBF0FBE0A
:10480000CDBF9AA789A74BA75CA76DA77EA7422E0D
:104810009091FC0489E2989F4001112429E132E043
:10482000820E931ED4011D961D921D921D921C9204
:10483000509780E090E0A0E0B0E0F40185A396A35B
:10484000A7A3B0A7108289E996E7A6E9BEE781A3EE
:1048500092A3A3A3B4A3A9A5BAA56D917D918D91AF
:104860009C9120914206309143064091440650911C
:1048700045060E94A0380E9470387B018C01E982B5
:10488000FA820B831C83E9A5FAA564817581868170
:1048900097812091460630914706409148065091F5
:1048A00049060E94A0380E9470389B01AC012D83FC
:1048B0003E834F8358872E0D3F1D401F511F80910F
:1048C000FF0490910005A0910105B0910205281BFD
:1048D000390B4A0B5B0B8091030590910405A09165
:1048E0000505B0910605281B390B4A0B5B0B57FFDA
:1048F00007C050954095309521953F4F4F4F5F4FE2
:10490000D40111962D933D934D935C931497209170
:1049100003053091040540910505509106058981F4
:104920009A81AB81BC81280F391F4A1F5B1F809180
:10493000FF0490910005A0910105B0910205281B8C
:10494000390B4A0B5B0B8D819E81AF81B885281B8B
:10495000390B4A0B5B0B57FF07C0509540953095BC
:1049600021953F4F4F4F5F4FF40125833683478397
:1049700050879A8E898E42E4242E46E0342E5524A8
:104980006624772442C0F2E05F16A1F5A9A5BAA576
:1049900018966D917D918D919C911B9720914A065F
:1049A00030914B0640914C0650914D060E94A03824
:1049B0000E9470389B01AC0129873A874B875C873E
:1049C0008091070590910805A0910905B0910A050D
:1049D000281B390B4A0B5B0B57FF07C050954095BE
:1049E000309521953F4F4F4F5F4FF401218732871C
:1049F0004387548724E030E0620E731E898D9A8DC0
:104A000004969A8F898F220E331EA98DBA8D119626
:104A10002D913D914D915C911497F401858596857A
:104A2000A785B08982179307A407B50710F4DA01A8
:104A3000C901F40185879687A787B08B552009F5B2
:104A40006D817E818F81988529813A814B815C813E
:104A5000620F731F841F951F209103053091040579
:104A60004091050550910605621B730B840B950B55
:104A70002091FF04309100054091010550910205FD
:104A800040C0B1E05B1661F56091030570910405CB
:104A9000809105059091060529813A814B815C81C1
:104AA000620F731F841F951F2091FF043091000532
:104AB0004091010550910205621B730B840B950B0D
:104AC0002D813E814F815885621B730B840B950BA2
:104AD0000E946D36F10120813181428153811CC0D9
:104AE000E1E0F0E0EC0FFD1FE60DF71DD301A15052
:104AF000BB4F60817181828193812D913D914D9158
:104B00005C91621B730B840B950B0E946D36D10177
:104B10002D913D914D915C910E94D2355B016C01CC
:104B2000EDE0F0E0EC0FFD1FE60DF71D60837183F3
:104B30008283938320E030E040E050E00E94CB3558
:104B4000882344F4F4011081852D0E94A528182B98
:104B5000D4011C93F401E5A0F6A007A110A5C6019D
:104B6000B501A60195010E94A0389B01AC01C801C6
:104B7000B7010E94F2347B018C01CB01D801F40112
:104B800085A396A3A7A3B0A75394F3E05F1609F0FB
:104B9000FACEB701C8010E942D397B018C01D401E6
:104BA00095966D937D938D939C9398971D968D917B
:104BB0009D910D90BC91A02D0097A105B10509F420
:104BC000D5C16BA57CA58DA59EA520E030E040E079
:104BD00050E00E94CB3588234CF489E996E7A6E99A
:104BE000BEE78BA79CA7ADA7BEA70EC0442061F06F
:104BF000C801B7012BA53CA54DA55EA50E94D235E5
:104C00006BA77CA78DA79EA760E070E080E89FE37C
:104C1000A80197010E94D2356DA37EA38FA398A708
:104C2000DE011D96B8A3AF8FEBE0F5E0FE8FED8FB0
:104C30002EE436E03C8F2B8F80E090E0A0E0B0E0E7
:104C400089A39AA3ABA3BCA3DE015996BAABA9ABC7
:104C5000EF8DF8A1E080F18002811381C801B701D6
:104C600020E030E040E050E00E94CB35882309F49A
:104C70007CC0C801B7012DA13EA14FA158A50E943B
:104C8000A0382B013C01AF8DB8A16D937D938D931E
:104C90009C93139760E070E080E89FE3A30192018A
:104CA0000E94D2355B016C01E894D7F8C601B501CA
:104CB000EB8DFC8D20813181428153810E94A0388F
:104CC0007B018C016BA57CA58DA59EA5A8019701F4
:104CD0000E94CB3587FD04C0EBA6FCA60DA71EA73E
:104CE000D4019196BC91BFA7F401F2A1F8ABD40115
:104CF00093962C90939794963C90C601B501EB8DBA
:104D0000FC8D24853585468557850E94A0387B011A
:104D10008C016FA578A9C101A80197010E94CB352C
:104D200087FD05C0D801C701EFA698AB1D018FA56F
:104D300098A9D101F40181A392A3A3A3B4A3C301B1
:104D4000B201AD8DBE8D2D913D914D915C910E9432
:104D5000A0389B01AC0169A17AA18BA19CA10E9402
:104D6000F13469A37AA38BA39CA3EF8DF8A13496A9
:104D7000F8A3EF8F2D8D3E8D2C5F3F4F3E8F2D8FF3
:104D80008B8D9C8D04969C8F8B8FA9A9BAA9EA174D
:104D9000FB0709F05DCF9091FC048091FB0498170C
:104DA00071F480E090E0A0E0B0E0F401818B928BA0
:104DB000A38BB48B818F928FA38FB48F52C060E08E
:104DC00070E080E89FE329A13AA14BA15CA10E9479
:104DD000F13420E030E040E05FE30E94A0380E9420
:104DE0002D395B016C01D40191966D917D918D916E
:104DF0009C91949720917A0630917B0640917C0695
:104E000050917D060E94A038A60195010E94A0380D
:104E10007B018C0160E070E080E89FE3A6019501D2
:104E20000E94F1349B01AC01C801B7010E94D23548
:104E30007B018C0120E030E040E050E00E94CB3567
:104E4000882354F40F2EF0E0EF2EF0E0FF2EF0E078
:104E50000F2FF0E01F2FF02DF401E18EF28E038F63
:104E6000148F6BA57CA58DA59EA59B01AC010E940E
:104E7000A0387B018C01D4015D966D937D938D9359
:104E80009C93909759965C9059975A964C905A9744
:104E90005B963C905B975C962C90D0901705C090E9
:104EA0001805B0901905A0901A052D2D3C2D4B2DFD
:104EB0005A2D0E94CB3587FD04C06D2C7C2CF5014A
:104EC00005C0D801C7013701FA2FEB2F652D742DCE
:104ED000832D922D93014F2F5E2F0E94CB35882377
:104EE0002CF4852D942DA32DB22D0EC0C801B70131
:104EF0002D2D3C2D4B2D5A2D0E94CB3587FD06C004
:104F00008D2D9C2DAB2DBA2D7C018D01F401E58AF0
:104F1000F68A078B108FABE0B5E0FE013D968CE082
:104F200001900D928150E1F7F401858D968DA78D4A
:104F3000B0A18093170590931805A0931905B0931D
:104F40001A05AFEFB4E0FE0131968CE001900D92AE
:104F50008150E1F78091FD048093FC048F5F8231E2
:104F600009F480E08093FD040E949D22E2960FB632
:104F7000F894DEBF0FBECDBFCF91DF911F910F918F
:104F8000FF90EF90DF90CF90BF90AF909F908F9069
:104F90007F906F905F904F903F902F9008958CE19D
:104FA000EFEFF4E0DF011D928A95E9F71092FB0420
:104FB0001092FC0481E08093FD041092FE04089599
:104FC0006F927F928F929F92AF92BF92CF92DF9219
:104FD000EF92FF920F931F93CF93DF934C013B010E
:104FE0005A01FB018081F401E80FF11DEF01899165
:104FF0008D3229F481812196CC24C39405C08B3253
:1050000011F481812196CC2420E030E040E050E092
:10501000DD24E0E070E0682F60536A30F8F4EF5F61
:10502000E930C0F47111DA94DA01C901F2E0880FB5
:10503000991FAA1FBB1FFA95D1F7280F391F4A1FC6
:105040005B1F220F331F441F551F260F311D411DAB
:10505000511D09C0772339F4D39405C06E3F29F45C
:10506000772319F471E08991D6CFEE2319F420E06B
:1050700030E051C0CA01B9010E946B367B018C013E
:1050800020E030E040E050E00E94CB35882369F416
:105090002BC0C801B7012AE037ED43E25CE30E9470
:1050A000A0387B018C01F2E0DF0E8FEFD8168CF375
:1050B000D81659F4C801B7012DEC3CEC4CEC5DE37B
:1050C0000E94A0387B018C010FC0DD2069F0C8016F
:1050D000B70120E030E040E251E40E94A0387B01BB
:1050E0008C01DA941D149CF3CC2049F0D801C7013F
:1050F000B058F50180839183A283B38305C0F50185
:10510000E082F18202831383882D80958C0FF30156
:10511000808321E030E0C901DF91CF911F910F9191
:10512000FF90EF90DF90CF90BF90AF909F908F90C7
:105130007F906F90089520EA3FE004C0F901319715
:10514000F1F701970097D1F70895813049F0813048
:1051500018F0823019F406C080E2089580E00895C6
:1051600080E4089580E8089584B1817F84B98091B6
:105170008306982F86FF03C085B1817F02C085B169
:105180008E6085B993FF09C080916B008E6080931B
:105190006B0080916800816008C080916B00817F06
:1051A00080936B00809168008E7F809368000895E3
:1051B000EBE6F0E08081817F8083E8E6F0E08081AB
:1051C0008E7F80830895CF92DF92EF92FF920F93AC
:1051D0001F93CF93DF936C01C0E0D0E0F601EC0F9A
:1051E000FD1FE080F18002811381C801B70120E03A
:1051F00030E040E050E00E94CE3718166CF0FE011F
:10520000EE5BF94FC801B70124A135A146A157A112
:105210000E94CB358823D4F480911C05803161F441
:1052200080911D05886080931D050E9480138091E8
:105230001B058823D1F30EC00E94890480911D05AF
:10524000806680931D050E94801304C02496CC3094
:10525000D10521F6DF91CF911F910F91FF90EF9033
:10526000DF90CF9008951F920F920FB60F921124E6
:105270002F933F934F935F936F937F938F939F935E
:10528000AF93BF93EF93FF9380911C05813059F04A
:1052900080911D0585FD07C00E94890480911D0530
:1052A000806680931D05FF91EF91BF91AF919F9113
:1052B0008F917F916F915F914F913F912F910F90BF
:1052C0000FBE0F901F9018952F923F924F925F92B2
:1052D0006F927F928F929F92AF92BF92CF92DF9206
:1052E000EF92FF920F931F93DF93CF93CDB7DEB76B
:1052F00068970FB6F894DEBF0FBECDBF982E809191
:105300001B05882309F0CBC18091890690918A06FC
:10531000A0918B06B0918C068F87988BA98BBA8B46
:10532000E0906606F09067060091680610916906A5
:10533000D0906A06C0906B06B0906C06A0906D0687
:10534000C801B7012D2D3C2D4B2D5A2D0E94CE3773
:10535000181634F48D2D9C2DAB2DBA2D7C018D01AA
:10536000D0906E06C0906F06B0907006A090710647
:10537000C801B7012D2D3C2D4B2D5A2D0E94CE3743
:10538000181634F48D2D9C2DAB2DBA2D7C018D017A
:10539000C801B70120E030E040EC5FEB0E94A0388C
:1053A0006B017C010E94CF2701E095E09D871E01E3
:1053B0000894211C311C492C552446015701B7FA89
:1053C000B094B7F8B094D201A170B070BC8BAB8B25
:1053D000F201E270F070FE8BED8BC2018470907070
:1053E000988F8F8B8091830686FD02C00E8703C045
:1053F00091E090279E873101F10160E020E030E0EC
:10540000C201022E02C0959587950A94E2F780FFAB
:105410000DC06F5F002329F480829182A282B38243
:105420000DC0C082D182E282F38208C080E090E0A9
:10543000A0E0B0E080839183A283B3832F5F3F4FCE
:10544000349623303105E1F630918406232F35FF61
:1054500009C089819A81AB81BC81B05889839A83C4
:10546000AB83BC8326FF09C08D819E81AF81B88547
:10547000B0588D839E83AF83B88737FF09C0898575
:105480009A85AB85BC85B05889879A87AB87BC87DE
:10549000AB89BC89AB2B11F410E001C014E0ED899D
:1054A000FE89EF2B09F018608F89988D892B09F000
:1054B000106110931E0570E080E090E00E946B3652
:1054C0000E942D399B01AC016F85788989899A8961
:1054D0000E94A038AB01BC01C10120E00E94E7237B
:1054E0000E9425150E94971483B19E85992311F07F
:1054F000AEE08A2712FF02C081FD1B7F13FF02C0AE
:1055000082FD177F14FF02C083FD1F7E10931E05CE
:105510000E94251580911D0584FF03C00E94801301
:10552000BEC0812F8C7101F70E94A31B0E94CF2760
:1055300080918D0690918E060E949B288091850611
:1055400090918606A0918706B09188068F87988BE8
:10555000A98BBA8B9D85992329F0A1E00A27915048
:105560009D8740CF9FE1C92E95E0D92E82E4882EF9
:1055700086E0982EAA24BB24C2010A2C02C095956D
:1055800087950A94E2F780FF49C0109184068A2D1E
:105590000E94A528182369F1F401E4A0F5A006A152
:1055A00017A160918F06709190068091910690915D
:1055B0009206A80197010E94F234D3016D937D9366
:1055C0008D939C931397C801B701F4012081318119
:1055D000428153810E94A0380E947038D6016C939A
:1055E00011967C93119712968C93129713969C9315
:1055F00028C080918F0690919006A0919106B0915D
:105600009206B058F30180839183A283B383D601BD
:105610001D921D921D921C92139713C0F60160817A
:105620007181828193810E946D36D4012D913D91CB
:105630004D915C910E94D235F30160837183828326
:1056400093830894A11CB11C84E090E0680E791E3D
:10565000C80ED91E880E991E93E0A916B10409F050
:105660008BCF0E946C224091890650918A066091EE
:105670008B0670918C06CE01019620E00E94E723F4
:1056800088E080931C0580911D05826080931D0534
:105690000E9480130E94081484E080931C05689681
:1056A0000FB6F894DEBF0FBECDBFCF91DF911F9133
:1056B0000F91FF90EF90DF90CF90BF90AF909F90B1
:1056C0008F907F906F905F904F903F902F900895B4
:1056D0008F929F92AF92BF92CF92DF92EF92FF9202
:1056E0000F931F93DF93CF93CDB7DEB72A970FB6F3
:1056F000F894DEBF0FBECDBF7B018C0120E030E00F
:1057000040E050E00E94CB3588233CF48DE20E94BB
:10571000C21217FB109517F91095A0908206DA2C8B
:105720000CC0C801B70120E030E048EC52E40E9410
:10573000A0387B018C018EEFD80EE1E0ED1588F3E7
:10574000A0FE0AC0C801B70120E030E040E251E409
:105750000E94A0387B018C01C801B70120E030E035
:1057600040E05FE30E94F2340E943A366B017C0114
:105770009E012F5F3F4FF901EA0DF11D8EE28083FC
:10578000BB2449011EC0BA1409F4B39484010B0D63
:10579000111DC701B6012AE030E040E050E00E9450
:1057A0008D39605DF8016083B394C701B6012AE0CA
:1057B00030E040E050E00E948D39C901DA016C010F
:1057C0007D01C114D104E104F104E9F606C0FC0135
:1057D000EB0DF11D2083B39403C0CE01019620E3AD
:1057E000BA14A8F3BA1489F48B2D8F5FFE01E80F69
:1057F000F11D90E39183B82EB39407C0FE01EB0D29
:10580000F11D80810E94C212BA94BB20B9F72A967A
:105810000FB6F894DEBF0FBECDBFCF91DF911F91C1
:105820000F91FF90EF90DF90CF90BF90AF909F903F
:105830008F9008958F929F92AF92BF92CF92DF92F6
:10584000EF92FF920F93DF93CF93CDB7DEB72A97F6
:105850000FB6F894DEBF0FBECDBF6B017C016115A2
:1058600071058105910521F480E30E94C2122FC0C9
:1058700000E04E010894811C911C5401A00EB11C43
:10588000C701B6012AE030E040E050E00E948D39C7
:10589000605DF50160830F5FC701B6012AE030E06B
:1058A00040E050E00E948D39C901DA016C017D01B0
:1058B000C114D104E104F10401F707C0FE01E00FB7
:1058C000F11D80810E94C21201500023B9F72A966F
:1058D0000FB6F894DEBF0FBECDBFCF91DF910F9111
:1058E000FF90EF90DF90CF90BF90AF909F908F9000
:1058F0000895EF92FF920F931F937B018C0197FF06
:105900000BC08DE20E94C21210950095F094E094B5
:10591000E11CF11C011D111DC801B7010E941A2CC8
:105920001F910F91FF90EF9008950F931F93DF93B6
:10593000CF93CDB7DEB728970FB6F894DEBF0FBE72
:10594000CDBF982FFE0131969E01275F3F4F892FD3
:10595000817081939695E217F307C9F78E01085F6E
:105960001F4FF8018081805D0E94C21201501040DB
:105970000C171D07B1F728960FB6F894DEBF0FBEBF
:10598000CDBFCF91DF911F910F910895CF93DF93FA
:10599000EC0102C00E94C212FE012196849188236C
:1059A000C9F7DF91CF910895CF93DF93EC0103C046
:1059B00021960E94C21288818823D1F7DF91CF916E
:1059C00008953D98459A089580912C05813091F471
:1059D000359910C010922C05EDE2F5E0DF011E971D
:1059E0008CE00D9001928150E1F780911D05886057
:1059F00080931D05089588E795E00E94C62C0895C0
:105A000086EA96E00E94C62C08951F93182F80E125
:105A100097E00E94C62C133091F0143028F4113016
:105A200041F01230B1F408C0143061F0153089F43F
:105A30000CC08EEF96E00BC08AEE96E008C088EDB1
:105A400096E005C080ED96E002C087EC96E00E94EB
:105A5000C62C83EC96E00E94C62C1F9108951F93DC
:105A6000182F882319F48FE498E054C087E498E055
:105A70000E94C62C173099F1183078F4133019F1C0
:105A8000143030F41130C9F0123009F041C018C0A0
:105A90001530F9F0163000F519C01B3061F11C30DB
:105AA00028F4193011F11A3018F51CC01D3049F1D5
:105AB0001D3020F11E3061F527C085E398E026C037
:105AC0008DE198E023C087E098E020C088EF97E060
:105AD0001DC082EE97E01AC080ED97E017C08FEBF3
